{
  "address": "0x7E5080eb61CA6C1628CbCa03cAD847c0f466De74",
  "abi": [
    {
      "inputs": [
        {
          "internalType": "address",
          "name": "tokensContract",
          "type": "address"
        }
      ],
      "stateMutability": "nonpayable",
      "type": "constructor"
    },
    {
      "inputs": [
        {
          "internalType": "uint256",
          "name": "tokenId",
          "type": "uint256"
        }
      ],
      "name": "NonForgeableTokenId",
      "type": "error"
    },
    {
      "inputs": [
        {
          "internalType": "uint256",
          "name": "tokenId",
          "type": "uint256"
        }
      ],
      "name": "forge",
      "outputs": [],
      "stateMutability": "nonpayable",
      "type": "function"
    },
    {
      "inputs": [],
      "name": "tokenContract",
      "outputs": [
        {
          "internalType": "contract IMyERC1155Token",
          "name": "",
          "type": "address"
        }
      ],
      "stateMutability": "view",
      "type": "function"
    }
  ],
  "transactionHash": "0x56f8a1117d81ca30fdc6892197c6c74d841955e9dd6a661a4bdc2f723e6f863c",
  "args": [
    "0xC67dc7fDdB919804811797f7535d94f1fa1d2e94"
  ],
  "numDeployments": 2,
  "solcInputHash": "27aaa0602278de9e8d808fecc8f652f0",
  "bytecode": "0x608060405234801561001057600080fd5b506040516106b23803806106b283398101604081905261002f91610054565b600080546001600160a01b0319166001600160a01b0392909216919091179055610084565b60006020828403121561006657600080fd5b81516001600160a01b038116811461007d57600080fd5b9392505050565b61061f806100936000396000f3fe608060405234801561001057600080fd5b50600436106100365760003560e01c806355a373d61461003b578063a94e834b14610084575b600080fd5b60005461005b9073ffffffffffffffffffffffffffffffffffffffff1681565b60405173ffffffffffffffffffffffffffffffffffffffff909116815260200160405180910390f35b6100976100923660046105d0565b610099565b005b60038110806100a85750600681115b156100e6576040517fe58dbf2f0000000000000000000000000000000000000000000000000000000081526004810182905260240160405180910390fd5b8060030361021657600080546040517feabe1ec200000000000000000000000000000000000000000000000000000000815233600482015260248101929092526001604483015273ffffffffffffffffffffffffffffffffffffffff169063eabe1ec290606401600060405180830381600087803b15801561016757600080fd5b505af115801561017b573d6000803e3d6000fd5b50506000546040517feabe1ec2000000000000000000000000000000000000000000000000000000008152336004820152600160248201819052604482015273ffffffffffffffffffffffffffffffffffffffff909116925063eabe1ec291506064015b600060405180830381600087803b1580156101f957600080fd5b505af115801561020d573d6000803e3d6000fd5b5050505061053c565b80600403610314576000546040517feabe1ec2000000000000000000000000000000000000000000000000000000008152336004820152600160248201819052604482015273ffffffffffffffffffffffffffffffffffffffff9091169063eabe1ec2906064015b600060405180830381600087803b15801561029857600080fd5b505af11580156102ac573d6000803e3d6000fd5b50506000546040517feabe1ec2000000000000000000000000000000000000000000000000000000008152336004820152600260248201526001604482015273ffffffffffffffffffffffffffffffffffffffff909116925063eabe1ec291506064016101df565b8060050361038057600080546040517feabe1ec200000000000000000000000000000000000000000000000000000000815233600482015260248101929092526001604483015273ffffffffffffffffffffffffffffffffffffffff169063eabe1ec29060640161027e565b8060060361053c57600080546040517feabe1ec200000000000000000000000000000000000000000000000000000000815233600482015260248101929092526001604483015273ffffffffffffffffffffffffffffffffffffffff169063eabe1ec290606401600060405180830381600087803b15801561040157600080fd5b505af1158015610415573d6000803e3d6000fd5b50506000546040517feabe1ec2000000000000000000000000000000000000000000000000000000008152336004820152600160248201819052604482015273ffffffffffffffffffffffffffffffffffffffff909116925063eabe1ec29150606401600060405180830381600087803b15801561049257600080fd5b505af11580156104a6573d6000803e3d6000fd5b50506000546040517feabe1ec2000000000000000000000000000000000000000000000000000000008152336004820152600260248201526001604482015273ffffffffffffffffffffffffffffffffffffffff909116925063eabe1ec29150606401600060405180830381600087803b15801561052357600080fd5b505af1158015610537573d6000803e3d6000fd5b505050505b6000546040517faacf0862000000000000000000000000000000000000000000000000000000008152336004820152602481018390526001604482015273ffffffffffffffffffffffffffffffffffffffff9091169063aacf086290606401600060405180830381600087803b1580156105b557600080fd5b505af11580156105c9573d6000803e3d6000fd5b5050505050565b6000602082840312156105e257600080fd5b503591905056fea2646970667358221220e94a7c58f7690e3260a7830ff15e5a93a1101af03adc3a0772483fecc35e536564736f6c63430008160033",
  "devdoc": {
    "kind": "dev",
    "methods": {},
    "version": 1
  },
  "userdoc": {
    "kind": "user",
    "methods": {},
    "version": 1
  },
  "storageLayout": {
    "storage": [
      {
        "astId": 23,
        "contract": "contracts/TheForge.sol:TheForge",
        "label": "tokenContract",
        "offset": 0,
        "slot": "0",
        "type": "t_contract(IMyERC1155Token)20"
      }
    ],
    "types": {
      "t_contract(IMyERC1155Token)20": {
        "encoding": "inplace",
        "label": "contract IMyERC1155Token",
        "numberOfBytes": "20"
      }
    }
  }
}